{
  "contractName": "ServiceRequest",
  "abi": [
    {
      "constant": true,
      "inputs": [
        {
          "name": "",
          "type": "address"
        }
      ],
      "name": "balances",
      "outputs": [
        {
          "name": "",
          "type": "uint256"
        }
      ],
      "payable": false,
      "stateMutability": "view",
      "type": "function"
    },
    {
      "constant": true,
      "inputs": [],
      "name": "nextRequestId",
      "outputs": [
        {
          "name": "",
          "type": "uint256"
        }
      ],
      "payable": false,
      "stateMutability": "view",
      "type": "function"
    },
    {
      "constant": true,
      "inputs": [
        {
          "name": "",
          "type": "uint256"
        }
      ],
      "name": "requests",
      "outputs": [
        {
          "name": "requestId",
          "type": "uint256"
        },
        {
          "name": "requester",
          "type": "address"
        },
        {
          "name": "totalFund",
          "type": "uint256"
        },
        {
          "name": "metadataDoc",
          "type": "bytes"
        },
        {
          "name": "expiration",
          "type": "uint256"
        },
        {
          "name": "endSubmission",
          "type": "uint256"
        },
        {
          "name": "endEvaluation",
          "type": "uint256"
        },
        {
          "name": "status",
          "type": "uint8"
        }
      ],
      "payable": false,
      "stateMutability": "view",
      "type": "function"
    },
    {
      "constant": true,
      "inputs": [
        {
          "name": "",
          "type": "address"
        }
      ],
      "name": "foundationMembers",
      "outputs": [
        {
          "name": "role",
          "type": "uint256"
        },
        {
          "name": "status",
          "type": "bool"
        },
        {
          "name": "exists",
          "type": "bool"
        }
      ],
      "payable": false,
      "stateMutability": "view",
      "type": "function"
    },
    {
      "constant": true,
      "inputs": [],
      "name": "token",
      "outputs": [
        {
          "name": "",
          "type": "address"
        }
      ],
      "payable": false,
      "stateMutability": "view",
      "type": "function"
    },
    {
      "inputs": [
        {
          "name": "_token",
          "type": "address"
        }
      ],
      "payable": false,
      "stateMutability": "nonpayable",
      "type": "constructor"
    },
    {
      "constant": false,
      "inputs": [
        {
          "name": "value",
          "type": "uint256"
        }
      ],
      "name": "deposit",
      "outputs": [
        {
          "name": "",
          "type": "bool"
        }
      ],
      "payable": false,
      "stateMutability": "nonpayable",
      "type": "function"
    },
    {
      "constant": false,
      "inputs": [
        {
          "name": "value",
          "type": "uint256"
        }
      ],
      "name": "withdraw",
      "outputs": [
        {
          "name": "",
          "type": "bool"
        }
      ],
      "payable": false,
      "stateMutability": "nonpayable",
      "type": "function"
    },
    {
      "constant": false,
      "inputs": [
        {
          "name": "newOwner",
          "type": "address"
        }
      ],
      "name": "updateOwner",
      "outputs": [
        {
          "name": "",
          "type": "bool"
        }
      ],
      "payable": false,
      "stateMutability": "nonpayable",
      "type": "function"
    },
    {
      "constant": false,
      "inputs": [
        {
          "name": "member",
          "type": "address"
        },
        {
          "name": "role",
          "type": "uint256"
        },
        {
          "name": "active",
          "type": "bool"
        }
      ],
      "name": "addOrUpdateFoundationMembers",
      "outputs": [
        {
          "name": "",
          "type": "bool"
        }
      ],
      "payable": false,
      "stateMutability": "nonpayable",
      "type": "function"
    },
    {
      "constant": false,
      "inputs": [
        {
          "name": "value",
          "type": "uint256"
        },
        {
          "name": "expiration",
          "type": "uint256"
        },
        {
          "name": "metadataDoc",
          "type": "bytes"
        }
      ],
      "name": "createRequest",
      "outputs": [
        {
          "name": "",
          "type": "bool"
        }
      ],
      "payable": false,
      "stateMutability": "nonpayable",
      "type": "function"
    },
    {
      "constant": false,
      "inputs": [
        {
          "name": "value",
          "type": "uint256"
        },
        {
          "name": "expiration",
          "type": "uint256"
        },
        {
          "name": "metadataDoc",
          "type": "bytes"
        }
      ],
      "name": "depositAndCreateRequest",
      "outputs": [
        {
          "name": "",
          "type": "bool"
        }
      ],
      "payable": false,
      "stateMutability": "nonpayable",
      "type": "function"
    },
    {
      "constant": false,
      "inputs": [
        {
          "name": "requestId",
          "type": "uint256"
        },
        {
          "name": "newExpiration",
          "type": "uint256"
        }
      ],
      "name": "extendRequest",
      "outputs": [
        {
          "name": "",
          "type": "bool"
        }
      ],
      "payable": false,
      "stateMutability": "nonpayable",
      "type": "function"
    },
    {
      "constant": false,
      "inputs": [
        {
          "name": "requestId",
          "type": "uint256"
        },
        {
          "name": "amount",
          "type": "uint256"
        }
      ],
      "name": "addFundsToRequest",
      "outputs": [
        {
          "name": "",
          "type": "bool"
        }
      ],
      "payable": false,
      "stateMutability": "nonpayable",
      "type": "function"
    },
    {
      "constant": false,
      "inputs": [
        {
          "name": "requestId",
          "type": "uint256"
        },
        {
          "name": "newExpiration",
          "type": "uint256"
        },
        {
          "name": "amount",
          "type": "uint256"
        }
      ],
      "name": "extendAndAddFundsToRequest",
      "outputs": [],
      "payable": false,
      "stateMutability": "nonpayable",
      "type": "function"
    },
    {
      "constant": false,
      "inputs": [
        {
          "name": "requestId",
          "type": "uint256"
        },
        {
          "name": "endSubmission",
          "type": "uint256"
        },
        {
          "name": "endEvaluation",
          "type": "uint256"
        },
        {
          "name": "newExpiration",
          "type": "uint256"
        }
      ],
      "name": "approveRequest",
      "outputs": [
        {
          "name": "",
          "type": "bool"
        }
      ],
      "payable": false,
      "stateMutability": "nonpayable",
      "type": "function"
    },
    {
      "constant": false,
      "inputs": [
        {
          "name": "requestId",
          "type": "uint256"
        }
      ],
      "name": "rejectRequest",
      "outputs": [
        {
          "name": "",
          "type": "bool"
        }
      ],
      "payable": false,
      "stateMutability": "nonpayable",
      "type": "function"
    },
    {
      "constant": false,
      "inputs": [
        {
          "name": "requestId",
          "type": "uint256"
        }
      ],
      "name": "closeRequest",
      "outputs": [
        {
          "name": "",
          "type": "bool"
        }
      ],
      "payable": false,
      "stateMutability": "nonpayable",
      "type": "function"
    },
    {
      "constant": false,
      "inputs": [
        {
          "name": "requestId",
          "type": "uint256"
        },
        {
          "name": "solutionDoc",
          "type": "bytes"
        }
      ],
      "name": "createOrUpdateSolutionProposal",
      "outputs": [
        {
          "name": "",
          "type": "bool"
        }
      ],
      "payable": false,
      "stateMutability": "nonpayable",
      "type": "function"
    },
    {
      "constant": false,
      "inputs": [
        {
          "name": "requestId",
          "type": "uint256"
        },
        {
          "name": "solutionSubmitter",
          "type": "address"
        }
      ],
      "name": "vote",
      "outputs": [
        {
          "name": "",
          "type": "bool"
        }
      ],
      "payable": false,
      "stateMutability": "nonpayable",
      "type": "function"
    },
    {
      "constant": false,
      "inputs": [
        {
          "name": "requestId",
          "type": "uint256"
        }
      ],
      "name": "requestReClaim",
      "outputs": [
        {
          "name": "",
          "type": "bool"
        }
      ],
      "payable": false,
      "stateMutability": "nonpayable",
      "type": "function"
    },
    {
      "constant": false,
      "inputs": [
        {
          "name": "requestId",
          "type": "uint256"
        }
      ],
      "name": "requestClaim",
      "outputs": [
        {
          "name": "",
          "type": "bool"
        }
      ],
      "payable": false,
      "stateMutability": "nonpayable",
      "type": "function"
    }
  ],
  "bytecode": "0x608060405234801561001057600080fd5b5060405160208061249f833981016040525160068054600160a060020a03909216600160a060020a03199283161790556003805490911633179055600080556124418061005e6000396000f30060806040526004361061011c5763ffffffff7c010000000000000000000000000000000000000000000000000000000060003504166302d947ef81146101215780630eaa4767146101595780632506fc461461017a57806327e235e3146101925780632d7788db146101c55780632e1a7d4d146101dd57806339fe7e21146101f55780633c3ff3ef146102555780636a84a9851461027057806381d12c5814610285578063880cdc3114610366578063a7e5c8f014610387578063ac6a08de146103b0578063b33bb6a5146103f1578063b6b55f251461044f578063b72f5bf414610467578063e00b288a14610487578063f0282b7f1461049f578063f8a880aa146104b7578063fc0c546a14610517578063fe444e5614610548575b600080fd5b34801561012d57600080fd5b50610145600435600160a060020a0360243516610563565b604080519115158252519081900360200190f35b34801561016557600080fd5b50610145600435602435604435606435610678565b34801561018657600080fd5b50610145600435610969565b34801561019e57600080fd5b506101b3600160a060020a0360043516610a55565b60408051918252519081900360200190f35b3480156101d157600080fd5b50610145600435610a67565b3480156101e957600080fd5b50610145600435610d00565b34801561020157600080fd5b50604080516020600460443581810135601f8101849004840285018401909552848452610145948235946024803595369594606494920191908190840183828082843750949750610df89650505050505050565b34801561026157600080fd5b5061014560043560243561101c565b34801561027c57600080fd5b506101b3611181565b34801561029157600080fd5b5061029d600435611187565b6040518089815260200188600160a060020a0316600160a060020a03168152602001878152602001806020018681526020018581526020018481526020018360048111156102e757fe5b60ff168152602001828103825287818151815260200191508051906020019080838360005b8381101561032457818101518382015260200161030c565b50505050905090810190601f1680156103515780820380516001836020036101000a031916815260200191505b50995050505050505050505060405180910390f35b34801561037257600080fd5b50610145600160a060020a036004351661125e565b34801561039357600080fd5b50610145600160a060020a036004351660243560443515156112b2565b3480156103bc57600080fd5b506103d1600160a060020a03600435166113f5565b604080519384529115156020840152151582820152519081900360600190f35b3480156103fd57600080fd5b5060408051602060046024803582810135601f810185900485028601850190965285855261014595833595369560449491939091019190819084018382808284375094975061141a9650505050505050565b34801561045b57600080fd5b50610145600435611585565b34801561047357600080fd5b506104856004356024356044356116d6565b005b34801561049357600080fd5b50610145600435611705565b3480156104ab57600080fd5b50610145600435611a7c565b3480156104c357600080fd5b50604080516020600460443581810135601f8101849004840285018401909552848452610145948235946024803595369594606494920191908190840183828082843750949750611d1c9650505050505050565b34801561052357600080fd5b5061052c611d48565b60408051600160a060020a039092168252519081900360200190f35b34801561055457600080fd5b50610145600435602435611d57565b6000828152600160208190526040822090600782015460ff16600481111561058757fe5b1461059157600080fd5b4381600401541180156105a75750806005015443115b80156105b7575080600601544311155b15156105c257600080fd5b3360009081526005602052604090206001015460ff16806105f25750336000908152600982016020526040812054115b15156105fd57600080fd5b600160a060020a0383166000908152600b8201602052604090206002015460ff16151561062957600080fd5b600160a060020a0383166000908152600b82016020908152604080832060019081018054820190553384526005909252909120015461066e908590859060ff16611dc9565b5060019392505050565b6000610682612220565b3360009081526005602052604090206001015460ff1615156106a357600080fd5b6000868152600160208181526040928390208351610160810185528154815281840154600160a060020a0316818401526002808301548287015260038301805487516101009782161597909702600019011691909104601f81018590048502860185019096528585529094919360608601939092908301828280156107695780601f1061073e57610100808354040283529160200191610769565b820191906000526020600020905b81548152906001019060200180831161074c57829003601f168201915b505050918352505060048281015460208301526005830154604083015260068301546060830152600783015460809092019160ff16908111156107a857fe5b60048111156107b357fe5b81526020016008820180548060200260200160405190810160405280929190818152602001828054801561081057602002820191906000526020600020905b8154600160a060020a031681526001909101906020018083116107f2575b50505050508152602001600a820180548060200260200160405190810160405280929190818152602001828054801561087257602002820191906000526020600020905b8154600160a060020a03168152600190910190602001808311610854575b50505050508152602001600c82018054806020026020016040519081016040528092919081815260200182805480156108d457602002820191906000526020600020905b8154600160a060020a031681526001909101906020018083116108b6575b5050505050815250509050600060048111156108ec57fe5b8160e0015160048111156108fc57fe5b1461090657600080fd5b838510801561091457508284105b8015610924575080608001518310155b151561092f57600080fd5b5050600093845260016020819052604090942060078101805460ff1916861790556005810193909355600683019190915560049091015590565b6000818152600160208190526040822090600782015460ff16600481111561098d57fe5b14801561099e575060008160020154115b15156109a957600080fd5b600481015443116109b957600080fd5b336000908152600982016020526040812054116109d557600080fd5b336000908152600982016020908152604080832054600290925290912054610a029163ffffffff6120b416565b336000908152600260208181526040808420949094556009850190529190205490820154610a359163ffffffff6120c716565b600282015533600090815260099091016020526040812055506001919050565b60026020526000908152604090205481565b6000610a71612220565b3360009081526005602052604090206001015460ff161515610a9257600080fd5b6000838152600160208181526040928390208351610160810185528154815281840154600160a060020a0316818401526002808301548287015260038301805487516101009782161597909702600019011691909104601f8101859004850286018501909652858552909491936060860193909290830182828015610b585780601f10610b2d57610100808354040283529160200191610b58565b820191906000526020600020905b815481529060010190602001808311610b3b57829003601f168201915b505050918352505060048281015460208301526005830154604083015260068301546060830152600783015460809092019160ff1690811115610b9757fe5b6004811115610ba257fe5b815260200160088201805480602002602001604051908101604052809291908181526020018280548015610bff57602002820191906000526020600020905b8154600160a060020a03168152600190910190602001808311610be1575b50505050508152602001600a8201805480602002602001604051908101604052809291908181526020018280548015610c6157602002820191906000526020600020905b8154600160a060020a03168152600190910190602001808311610c43575b50505050508152602001600c8201805480602002602001604051908101604052809291908181526020018280548015610cc357602002820191906000526020600020905b8154600160a060020a03168152600190910190602001808311610ca5575b505050505081525050905060006004811115610cdb57fe5b8160e001516004811115610ceb57fe5b14610cf557600080fd5b61066e8360026120d9565b33600090815260026020526040812054821115610d1c57600080fd5b600654604080517fa9059cbb000000000000000000000000000000000000000000000000000000008152336004820152602481018590529051600160a060020a039092169163a9059cbb916044808201926020929091908290030181600087803b158015610d8957600080fd5b505af1158015610d9d573d6000803e3d6000fd5b505050506040513d6020811015610db357600080fd5b50511515610dc057600080fd5b33600090815260026020526040902054610de0908363ffffffff6120c716565b33600090815260026020526040902055506001919050565b6000610e02612220565b33600090815260026020526040902054851115610e1e57600080fd5b6000805481526001602081815260409283902084518155848201519281018054600160a060020a031916600160a060020a0390941693909317909255918301516002820155606083015180518493610e7d92600385019291019061228f565b506080820151816004015560a0820151816005015560c0820151816006015560e08201518160070160006101000a81548160ff02191690836004811115610ec057fe5b02179055506101008201518051610ee191600884019160209091019061230d565b506101208201518051610efe91600a84019160209091019061230d565b506101408201518051610f1b91600c84019160209091019061230d565b505060008054808252600160208181526040808520938455929091018054600160a060020a03191633179055825483528183206002018990558254835291208551610f6f935060039091019186019061228f565b5060008054815260016020908152604080832060040187905582548352808320600701805460ff191690553383526002909152902054610faf90866120c7565b3360008181526002602090815260408083209490945581548252600180825284832084845260090182528483208a90558254835280825293822060080180548086018255908352908220018054600160a060020a0319169092179091558054820190559150509392505050565b336000908152600260205260408120548190831180159061103d5750600083115b151561104857600080fd5b50600083815260016020819052604090912090600782015460ff16600481111561106e57fe5b1461107857600080fd5b43816004015411801561108e5750806006015443105b151561109957600080fd5b336000908152600260205260409020546110b9908463ffffffff6120c716565b336000908152600260208181526040808420949094558783526001905291902001546110eb908463ffffffff6120b416565b60008581526001602090815260408083206002810194909455338352600990930190522054611120908463ffffffff6120b416565b6000858152600160209081526040808320338452600901909152902081905583141561066e5760008481526001602081815260408320600801805492830181558352909120018054600160a060020a03191633179055600191505092915050565b60005481565b60016020818152600092835260409283902080548184015460028084015460038501805489516101009982161599909902600019011692909204601f81018790048702880187019098528787529296600160a060020a039092169592949091908301828280156112385780601f1061120d57610100808354040283529160200191611238565b820191906000526020600020905b81548152906001019060200180831161121b57829003601f168201915b505050506004830154600584015460068501546007909501549394919390925060ff1688565b600354600090600160a060020a0316331461127857600080fd5b600160a060020a038216151561128d57600080fd5b5060038054600160a060020a038316600160a060020a03199091161790556001919050565b60006112bc61236e565b600354600160a060020a03163314806112e45750336000908152600560205260409020546001145b15156112ef57600080fd5b600160a060020a038516151561130457600080fd5b8315806113115750836001145b151561131c57600080fd5b600160a060020a038516600090815260056020526040902060010154610100900460ff16151561139257600480546001810182556000919091527f8a35acfbc15ff81a39ae7d344fd709f28e8600b4aa8c65c6b64bfe7fe36bd19b018054600160a060020a031916600160a060020a0387161790555b600160a060020a0394909416600090815260056020908152604091829020908601516001808301805498909401519690925560ff199687169015151761ff0019908116610100961515870217909616931515939093179094169092179092555090565b6005602052600090815260409020805460019091015460ff8082169161010090041683565b60008061142561238e565b60008581526001602081905260409091209250600783015460ff16600481111561144b57fe5b1461145557600080fd5b43826004015411801561146c575081600501544311155b151561147757600080fd5b336000908152600b8301602052604090206002015460ff1615156114bd57600a8201805460018101825560009182526020909120018054600160a060020a031916331790555b336000908152600b8301602090815260409091208251805184936114e592849291019061228f565b5060208281015160018301556040808401516002909301805460608601516080909601511515620100000262ff0000199615156101000261ff001996151560ff199093169290921795909516179490941692909217909255336000908152600b850183522085516115589287019061228f565b50336000908152600b830160205260409020600201805460ff191660019081179091559250505092915050565b600654604080517f23b872dd000000000000000000000000000000000000000000000000000000008152336004820152306024820152604481018490529051600092600160a060020a0316916323b872dd91606480830192602092919082900301818787803b1580156115f757600080fd5b505af115801561160b573d6000803e3d6000fd5b505050506040513d602081101561162157600080fd5b505115156116b657604080517f08c379a000000000000000000000000000000000000000000000000000000000815260206004820152602860248201527f556e61626c6520746f207472616e7366657220746f6b656e20746f207468652060448201527f636f6e7472616374000000000000000000000000000000000000000000000000606482015290519081900360840190fd5b33600090815260026020526040902054610de0908363ffffffff6120b416565b6116e08383611d57565b15156116eb57600080fd5b6116f5838261101c565b151561170057600080fd5b505050565b600081815260016020819052604082208291829182918291829182908190600784015460ff16600481111561173657fe5b148015611747575060008360020154115b151561175257600080fd5b8260060154431180156117685750826004015443105b151561177357600080fd5b336000908152600b8401602052604090206002015460ff1680156117b25750336000908152600b8401602052604090206002015462010000900460ff16155b15156117bd57600080fd5b6000808052600d8401602052604090206001015460ff1680156117f95750336000908152600b84016020526040902060020154610100900460ff165b15611812576000808052600d8401602052604090205497505b600091505b6008830154821015611a1c57600883018054600096508690811061183757fe5b6000918252602080832090910154600160a060020a031680835260098601909152604082205498509450871115611a1157600160a060020a0384166000908152600d8401602052604090206001015460ff161561199c575060005b600160a060020a0384166000908152600d8401602052604090205481101561192257600160a060020a0384166000908152600d8401602052604090208054339190839081106118dd57fe5b600091825260209091200154600160a060020a0316141561191a57600160a060020a0384166000908152600d840160205260409020549450611922565b600101611892565b60008511156119975761193b878663ffffffff61220b16565b600160a060020a0385166000908152600985016020526040902054909750611969908863ffffffff6120c716565b600160a060020a0385166000908152600985016020526040902055611994868863ffffffff6120b416565b95505b611a11565b6000881115611a11576119b5878963ffffffff61220b16565b600160a060020a03851660009081526009850160205260409020549097506119e3908863ffffffff6120c716565b600160a060020a0385166000908152600985016020526040902055611a0e868863ffffffff6120b416565b95505b600190910190611817565b33600090815260026020526040902054611a3c908763ffffffff6120b416565b33600090815260026020818152604080842094909455600b8701905291902001805462ff0000191662010000179055600198505050505050505050919050565b6000611a86612220565b3360009081526005602052604090206001015460ff161515611aa757600080fd5b6000838152600160208181526040928390208351610160810185528154815281840154600160a060020a0316818401526002808301548287015260038301805487516101009782161597909702600019011691909104601f8101859004850286018501909652858552909491936060860193909290830182828015611b6d5780601f10611b4257610100808354040283529160200191611b6d565b820191906000526020600020905b815481529060010190602001808311611b5057829003601f168201915b505050918352505060048281015460208301526005830154604083015260068301546060830152600783015460809092019160ff1690811115611bac57fe5b6004811115611bb757fe5b815260200160088201805480602002602001604051908101604052809291908181526020018280548015611c1457602002820191906000526020600020905b8154600160a060020a03168152600190910190602001808311611bf6575b50505050508152602001600a8201805480602002602001604051908101604052809291908181526020018280548015611c7657602002820191906000526020600020905b8154600160a060020a03168152600190910190602001808311611c58575b50505050508152602001600c8201805480602002602001604051908101604052809291908181526020018280548015611cd857602002820191906000526020600020905b8154600160a060020a03168152600190910190602001808311611cba575b505050505081525050905060016004811115611cf057fe5b8160e001516004811115611d0057fe5b14611d0a57600080fd5b611d158360046120d9565b5050919050565b6000611d2784611585565b1515611d3257600080fd5b611d3d848484610df8565b151561066e57600080fd5b600654600160a060020a031681565b6000828152600160208190526040822090810154600160a060020a03163314611d7f57600080fd5b6000600782015460ff166004811115611d9457fe5b14611d9e57600080fd5b6004810154831015611daf57600080fd5b505060009182526001602081905260409092206004015590565b6000611dd36123bc565b611ddb6123bc565b60008681526001602052604081209350808515611f3857600160a060020a0387166000908152600b86016020526040902060020154610100900460ff161515611f38576000808052600d8601602052604090206001015460ff161515611ed3576000808052600d860160209081526040909120855180518793611e6292849291019061230d565b506020918201516001918201805460ff19169115159190911790556000808052600d880183526040812080548084018255908252838220018054600160a060020a0319908116600160a060020a038d1617909155600c89018054938401815582529290200180549091169055611f0d565b6000808052600d860160209081526040822080546001810182559083529120018054600160a060020a031916600160a060020a0389161790555b600160a060020a0387166000908152600b860160205260409020600201805461ff0019166101001790555b336000908152600d8601602052604090206001015460ff161515611ff357336000908152600d860160209081526040909120845180518693611f7e92849291019061230d565b506020918201516001918201805460ff1916911515919091179055336000818152600d890184526040812080548085018255908252848220018054600160a060020a0319908116600160a060020a038e1617909155600c8a0180549485018155825293902090910180549092161790556120aa565b5060009050805b336000908152600d8601602052604090205481101561206857336000908152600d8601602052604090208054600160a060020a03891691908390811061203c57fe5b600091825260209091200154600160a060020a031614156120605760019150612068565b600101611ffa565b8115156120aa57336000908152600d860160209081526040822080546001810182559083529120018054600160a060020a031916600160a060020a0389161790555b5050505050505050565b818101828110156120c157fe5b92915050565b6000828211156120d357fe5b50900390565b600082815260016020526040812081805b60088301548110156121d85782600901600084600801600081548110151561210e57fe5b6000918252602080832090910154600160a060020a031683528201929092526040018120546008850180549194506121839285926009880192908290811061215257fe5b6000918252602080832090910154600160a060020a031683528201929092526040019020549063ffffffff6120c716565b506121cf826002600086600801600081548110151561219e57fe5b6000918252602080832090910154600160a060020a031683528201929092526040019020549063ffffffff6120b416565b506001016120ea565b6000600284015560078301805486919060ff191660018360048111156121fa57fe5b021790555060019695505050505050565b6000818381151561221857fe5b049392505050565b61016060405190810160405280600081526020016000600160a060020a0316815260200160008152602001606081526020016000815260200160008152602001600081526020016000600481111561227457fe5b81526020016060815260200160608152602001606081525090565b828054600181600116156101000203166002900490600052602060002090601f016020900481019282601f106122d057805160ff19168380011785556122fd565b828001600101855582156122fd579182015b828111156122fd5782518255916020019190600101906122e2565b506123099291506123d4565b5090565b828054828255906000526020600020908101928215612362579160200282015b828111156123625782518254600160a060020a031916600160a060020a0390911617825560209092019160019091019061232d565b506123099291506123f1565b604080516060810182526000808252602082018190529181019190915290565b6040805160a08101825260608082526000602083018190529282018390528101829052608081019190915290565b60408051808201909152606081526000602082015290565b6123ee91905b8082111561230957600081556001016123da565b90565b6123ee91905b80821115612309578054600160a060020a03191681556001016123f75600a165627a7a723058205309721f0e5cd8c17d308c0e926b1189de0b02cdc2772222da48763aac3551d80029",
  "source": "pragma solidity ^0.4.24;\n\nimport \"openzeppelin-solidity/contracts/token/ERC20/ERC20.sol\";\nimport \"openzeppelin-solidity/contracts/math/SafeMath.sol\";\n\ncontract ServiceRequest {\n    \n    using SafeMath for uint256;\n    \n    struct Request {\n        uint256 requestId;\n        address requester;\n        uint256 totalFund;\n        bytes metadataDoc;\n        \n        uint256 expiration;\n        uint256 endSubmission;\n        uint256 endEvaluation;\n        \n        RequestStatus status;\n        \n        address[] fundMembers;\n        mapping(address => uint256) funds;\n        \n        address[] submitters;\n        mapping(address => Solution) submittedSols;\n\n        address[] voters;\n        mapping(address => Vote) votes;\n    }\n    \n    struct Vote{\n        address[] selectedSols;\n        bool exists;\n    }\n    \n    // Open -> Rejected\n    // Open -> Approved -> Completed -> Closed\n    enum RequestStatus { Open, Approved, Rejected, Completed, Closed }\n    \n    struct Solution {\n        bytes solutionDoc;\n        uint256 totalVotes;\n        \n        bool isSubmitted;\n        bool isShortlisted;\n        bool isClaimed;\n    }\n    \n    uint256 public nextRequestId;\n    mapping (uint256 => Request) public requests;\n    mapping (address => uint256) public balances;\n    \n    address owner;\n    \n    address[] memberKeys;\n    struct Member {\n        uint role; // 0-Normal member, 1-> Admin Member who can add other members\n        bool status; // True -> Actibe, False -> InActive/Deleted\n        bool exists; // To check the existstance of the Member\n    }\n    mapping(address => Member) public foundationMembers;\n \n    ERC20 public token; // Address of token contract\n    \n    constructor (address _token)\n    public\n    {\n        token = ERC20(_token);\n        owner = msg.sender;\n        nextRequestId = 0;\n    }\n  \n    function deposit(uint256 value) \n    public\n    returns(bool) \n    {\n        require(token.transferFrom(msg.sender, this, value), \"Unable to transfer token to the contract\"); \n        balances[msg.sender] = balances[msg.sender].add(value);\n        return true;\n    }\n    \n    function withdraw(uint256 value)\n    public\n    returns(bool)\n    {\n        require(balances[msg.sender] >= value);\n        require(token.transfer(msg.sender, value));\n        balances[msg.sender] = balances[msg.sender].sub(value);\n        return true;\n    }\n    \n    function updateOwner(address newOwner) public returns(bool) {\n        require(owner == msg.sender);\n        require(newOwner != address(0));\n        \n        owner = newOwner;\n        \n        return true;\n    }\n    \n    function addOrUpdateFoundationMembers(address member, uint role, bool active) public returns (bool) {\n        \n        require(owner == msg.sender || foundationMembers[msg.sender].role == 1);\n        require(member != address(0));\n        require(role == 0 || role == 1);\n        \n        Member memory mem;\n        if(!foundationMembers[member].exists) {\n            memberKeys.push(member);\n        }\n        foundationMembers[member] = mem;\n        foundationMembers[member].role = role;\n        foundationMembers[member].status = active;\n        foundationMembers[member].exists = true;\n        \n        return true;\n    }\n    \n    function createRequest(uint256 value, uint256 expiration, bytes metadataDoc) \n    public\n    returns(bool) \n    {\n        require(balances[msg.sender] >= value);\n        \n        Request memory req;\n        requests[nextRequestId] = req;\n        \n        requests[nextRequestId].requestId = nextRequestId;\n        requests[nextRequestId].requester = msg.sender;\n        requests[nextRequestId].totalFund = value;\n        requests[nextRequestId].metadataDoc = metadataDoc;\n        requests[nextRequestId].expiration = expiration;\n        requests[nextRequestId].status = RequestStatus.Open;\n\n        balances[msg.sender] = balances[msg.sender].sub(value);\n\n        requests[nextRequestId].funds[msg.sender] = value;\n        requests[nextRequestId].fundMembers.push(msg.sender);\n\n        nextRequestId += 1;\n        \n\n        return true;\n    }\n\n    function depositAndCreateRequest(uint256 value, uint256 expiration, bytes metadataDoc)\n    public\n    returns(bool)\n    {\n        require(deposit(value));\n        require(createRequest(value, expiration, metadataDoc));\n        return true;\n    }\n\n\n    /// the sender can extend the expiration of the request at any time\n    function extendRequest(uint256 requestId, uint256 newExpiration) \n    public \n    returns(bool)\n    {\n        Request storage req = requests[requestId];\n\n        require(msg.sender == req.requester);\n        require(req.status == RequestStatus.Open);\n        require(newExpiration >= req.expiration);\n\n        requests[requestId].expiration = newExpiration;\n        return true;\n    }\n    \n    // Anyone could add funds to the service request\n    function addFundsToRequest(uint256 requestId, uint256 amount)\n    public\n    returns(bool)\n    {\n        require(balances[msg.sender] >= amount && amount > 0);\n        \n        Request storage req = requests[requestId];\n        \n        // Request should be Approved - Means in Progress\n        require(req.status == RequestStatus.Approved);\n        \n        // Request should not be expired\n        require(req.expiration > block.number && block.number < req.endEvaluation);\n\n        //tranfser amount from sender to the Service Request\n        balances[msg.sender] = balances[msg.sender].sub(amount);\n        requests[requestId].totalFund = requests[requestId].totalFund.add(amount);\n        \n        //Update the respective request funds\n        requests[requestId].funds[msg.sender] = requests[requestId].funds[msg.sender].add(amount);\n        // Adding funds first time check\n        if(requests[requestId].funds[msg.sender] == amount){\n            requests[requestId].fundMembers.push(msg.sender);\n        } // else member already exists\n            \n        return true;\n    }\n\n    function extendAndAddFundsToRequest(uint256 requestId, uint256 newExpiration, uint256 amount)\n    public\n    {\n        require(extendRequest(requestId, newExpiration));\n        require(addFundsToRequest(requestId, amount));\n    }\n    \n    function approveRequest(uint256 requestId, uint256 endSubmission, uint256 endEvaluation, uint256 newExpiration) public returns(bool) {\n        \n        // Should be foundation Member\n        require(foundationMembers[msg.sender].status);\n        \n        Request memory req = requests[requestId];\n        \n        // Request should be active\n        require(req.status == RequestStatus.Open);\n        \n        // Request should not be expired\n        //require(req.expiration > block.number);\n        require(endSubmission < endEvaluation && endEvaluation < newExpiration && newExpiration >= req.expiration );\n        \n        requests[requestId].status = RequestStatus.Approved;\n        requests[requestId].endSubmission = endSubmission;\n        requests[requestId].endEvaluation = endEvaluation;\n        requests[requestId].expiration = newExpiration;\n        \n        return true;\n    }\n    \n    function rejectRequest(uint256 requestId) public returns(bool) {\n        \n        // Should be foundation Member\n        require(foundationMembers[msg.sender].status);\n        \n        Request memory req = requests[requestId];\n        \n        // Request should be active\n        require(req.status == RequestStatus.Open);\n        \n        settleFundsAndChangeStatus(requestId, RequestStatus.Rejected);\n        \n        return true;\n    }\n\n    function closeRequest(uint256 requestId) public returns(bool) {\n        \n        // Should be ative foundation Member\n        require(foundationMembers[msg.sender].status);\n        \n        Request memory req = requests[requestId];\n        \n        // Request should be active\n        require(req.status == RequestStatus.Approved);  \n        \n        settleFundsAndChangeStatus(requestId, RequestStatus.Closed);\n        \n    }\n    \n    function settleFundsAndChangeStatus(uint256 requestId, RequestStatus finalStatus) internal returns(bool) {\n        \n        Request storage req = requests[requestId];\n        uint256 amount;\n        for(uint256 i=0; i<req.fundMembers.length; i++) {\n            amount = req.funds[req.fundMembers[0]];\n            req.funds[req.fundMembers[0]].sub(amount);\n            balances[req.fundMembers[0]].add(amount);\n        }\n        req.totalFund = 0;\n        req.status = finalStatus;\n        \n        return true;\n    }\n    \n    function createOrUpdateSolutionProposal(uint256 requestId, bytes solutionDoc)\n    public\n    returns(bool)\n    {\n        Request storage req = requests[requestId];\n\n        // Request should be active\n        require(req.status == RequestStatus.Approved);\n        \n        // Request should not be expired\n        require(req.expiration > block.number && block.number <= req.endSubmission);\n        \n        Solution memory sol;\n\n        // Check if already user submitted the solution\n        if(!req.submittedSols[msg.sender].isSubmitted) {\n            req.submitters.push(msg.sender);\n        }\n        // Create or Update the Submitted Solution\n        req.submittedSols[msg.sender] = sol;\n        req.submittedSols[msg.sender].solutionDoc = solutionDoc;\n        req.submittedSols[msg.sender].isSubmitted = true;\n        \n        return true;\n        \n    }\n\n    // Only users who has stake can vote\n    // Foundation members can vote => Shortlist\n    function vote(uint256 requestId, address solutionSubmitter) public returns (bool) {\n        \n        Request storage req = requests[requestId];\n        \n        // Request should be active\n        require(req.status == RequestStatus.Approved);\n        \n        // Request should not be expired\n        require(req.expiration > block.number && block.number > req.endSubmission && block.number <= req.endEvaluation);\n        \n        // Should be foundation Member or Staking Member to Vote\n        require(foundationMembers[msg.sender].status || req.funds[msg.sender] > 0);\n        \n        // Check for solution Submitter status\n        require(req.submittedSols[solutionSubmitter].isSubmitted);\n        \n        req.submittedSols[solutionSubmitter].totalVotes += 1;\n        \n        submitVote(requestId, solutionSubmitter, foundationMembers[msg.sender].status);\n        \n        \n        return true;\n    }\n\n    function submitVote(uint256 requestId, address solutionSubmitter, bool isFromFoundation) \n    internal \n    {\n        \n        Request storage req = requests[requestId];\n\n        if(isFromFoundation) {\n            // 0x0 contains foundation shortlisted solutions\n            if(!req.submittedSols[solutionSubmitter].isShortlisted) {\n                Vote memory foundationVote;\n                if(!req.votes[address(0)].exists) {\n                    req.votes[address(0)] = foundationVote;\n                    req.votes[address(0)].selectedSols.push(solutionSubmitter);\n                    req.voters.push(address(0));\n                }\n                else {\n                    req.votes[address(0)].selectedSols.push(solutionSubmitter);\n                }\n                req.submittedSols[solutionSubmitter].isShortlisted = true;\n            }\n        }\n        \n        Vote memory vot;\n        if(!req.votes[msg.sender].exists){\n            req.votes[msg.sender] = vot;\n            req.votes[msg.sender].selectedSols.push(solutionSubmitter);\n            req.voters.push(msg.sender);\n        }\n        else {\n            // Check if already votted for same solution submitter\n            bool subExists = false;\n            for(uint256 i=0; i<req.votes[msg.sender].selectedSols.length; i++)\n            {\n                if(req.votes[msg.sender].selectedSols[i] == solutionSubmitter) {\n                    subExists = true;\n                    break;\n                }\n            }\n            if(!subExists) {\n                req.votes[msg.sender].selectedSols.push(solutionSubmitter);\n            }\n        }\n    }\n    \n    function requestReClaim(uint256 requestId) public returns (bool) {\n        Request storage req = requests[requestId];\n        \n        // Request should be active and should have funds\n        require(req.status == RequestStatus.Approved && req.totalFund > 0);\n        \n        // Only after expire\n        require(block.number > req.expiration);\n        \n        // Should have stake\n        require(req.funds[msg.sender] > 0);\n        \n        balances[msg.sender] = balances[msg.sender].add(req.funds[msg.sender]);\n        req.totalFund = req.totalFund.sub(req.funds[msg.sender]);\n        req.funds[msg.sender] = 0;\n        \n        return true;\n    }\n\n    function requestClaim(uint256 requestId) \n    public\n    returns (bool)\n    {\n        uint256 fundationVotes;\n        uint256 userStake;\n        uint256 totalClaim;\n        uint256 userVotes;\n        address fundMember;\n        Request storage req = requests[requestId];\n        \n        // Request should be active and should have funds\n        require(req.status == RequestStatus.Approved && req.totalFund > 0);\n        \n        // Request should complete the eveluation and should not expire\n        require(block.number > req.endEvaluation && block.number < req.expiration);\n        \n        // Should be Solution Submitter Only and should have atleast one vote\n        require(req.submittedSols[msg.sender].isSubmitted && !req.submittedSols[msg.sender].isClaimed);\n        \n        \n        if(req.votes[address(0)].exists && req.submittedSols[msg.sender].isShortlisted) {\n            fundationVotes = req.votes[address(0)].selectedSols.length;\n        }\n        \n        \n        for(uint256 i=0; i<req.fundMembers.length;i++) {\n            userVotes = 0;\n            fundMember = req.fundMembers[0];\n            userStake = req.funds[fundMember];\n            if(userStake > 0) {\n                \n                if(req.votes[fundMember].exists) {\n                    for(uint256 j=0;j<req.votes[fundMember].selectedSols.length;j++) {\n                        if(req.votes[fundMember].selectedSols[j] == msg.sender) {\n                            userVotes = req.votes[fundMember].selectedSols.length;\n                            break;\n                        }\n                    }\n                    if(userVotes > 0) {\n                        userStake = userStake.div(userVotes);\n                        req.funds[fundMember] = req.funds[fundMember].sub(userStake);\n                        totalClaim = totalClaim.add(userStake);\n                    }\n                    \n                }\n                else if(fundationVotes > 0) {\n                    userStake = userStake.div(fundationVotes);\n                    req.funds[fundMember] = req.funds[fundMember].sub(userStake);\n                    totalClaim = totalClaim.add(userStake);\n                }\n                \n            }\n            \n        }\n        \n        balances[msg.sender] = balances[msg.sender].add(totalClaim);\n        req.submittedSols[msg.sender].isClaimed = true;        \n\n        return true;\n    }\n    \n}\n",
  "sourcePath": "C:\\Users\\E178266\\Desktop\\LTBD\\RFAI-Contracts\\RFAI-Contracts\\contracts\\ServiceRequest.sol",
  "compiler": {
    "name": "solc",
    "version": "0.4.24+commit.e67f0147.Emscripten.clang"
  },
  "schemaVersion": "2.0.1",
  "updatedAt": "2018-11-30T17:13:08.973Z"
}