{
  "contractName": "ServiceRequest",
  "abi": [
    {
      "constant": true,
      "inputs": [
        {
          "name": "",
          "type": "address"
        }
      ],
      "name": "balances",
      "outputs": [
        {
          "name": "",
          "type": "uint256"
        }
      ],
      "payable": false,
      "stateMutability": "view",
      "type": "function"
    },
    {
      "constant": true,
      "inputs": [],
      "name": "nextRequestId",
      "outputs": [
        {
          "name": "",
          "type": "uint256"
        }
      ],
      "payable": false,
      "stateMutability": "view",
      "type": "function"
    },
    {
      "constant": true,
      "inputs": [
        {
          "name": "",
          "type": "uint256"
        }
      ],
      "name": "requests",
      "outputs": [
        {
          "name": "requestId",
          "type": "uint256"
        },
        {
          "name": "requester",
          "type": "address"
        },
        {
          "name": "totalFund",
          "type": "uint256"
        },
        {
          "name": "metadataDoc",
          "type": "bytes"
        },
        {
          "name": "expiration",
          "type": "uint256"
        },
        {
          "name": "endSubmission",
          "type": "uint256"
        },
        {
          "name": "endEvaluation",
          "type": "uint256"
        },
        {
          "name": "status",
          "type": "uint8"
        }
      ],
      "payable": false,
      "stateMutability": "view",
      "type": "function"
    },
    {
      "constant": true,
      "inputs": [
        {
          "name": "",
          "type": "address"
        }
      ],
      "name": "foundationMembers",
      "outputs": [
        {
          "name": "role",
          "type": "uint256"
        },
        {
          "name": "status",
          "type": "bool"
        },
        {
          "name": "exists",
          "type": "bool"
        }
      ],
      "payable": false,
      "stateMutability": "view",
      "type": "function"
    },
    {
      "constant": true,
      "inputs": [],
      "name": "token",
      "outputs": [
        {
          "name": "",
          "type": "address"
        }
      ],
      "payable": false,
      "stateMutability": "view",
      "type": "function"
    },
    {
      "inputs": [
        {
          "name": "_token",
          "type": "address"
        }
      ],
      "payable": false,
      "stateMutability": "nonpayable",
      "type": "constructor"
    },
    {
      "constant": false,
      "inputs": [
        {
          "name": "value",
          "type": "uint256"
        }
      ],
      "name": "deposit",
      "outputs": [
        {
          "name": "",
          "type": "bool"
        }
      ],
      "payable": false,
      "stateMutability": "nonpayable",
      "type": "function"
    },
    {
      "constant": false,
      "inputs": [
        {
          "name": "value",
          "type": "uint256"
        }
      ],
      "name": "withdraw",
      "outputs": [
        {
          "name": "",
          "type": "bool"
        }
      ],
      "payable": false,
      "stateMutability": "nonpayable",
      "type": "function"
    },
    {
      "constant": false,
      "inputs": [
        {
          "name": "newOwner",
          "type": "address"
        }
      ],
      "name": "updateOwner",
      "outputs": [
        {
          "name": "",
          "type": "bool"
        }
      ],
      "payable": false,
      "stateMutability": "nonpayable",
      "type": "function"
    },
    {
      "constant": false,
      "inputs": [
        {
          "name": "member",
          "type": "address"
        },
        {
          "name": "role",
          "type": "uint256"
        },
        {
          "name": "active",
          "type": "bool"
        }
      ],
      "name": "addOrUpdateFoundationMembers",
      "outputs": [
        {
          "name": "",
          "type": "bool"
        }
      ],
      "payable": false,
      "stateMutability": "nonpayable",
      "type": "function"
    },
    {
      "constant": false,
      "inputs": [
        {
          "name": "value",
          "type": "uint256"
        },
        {
          "name": "expiration",
          "type": "uint256"
        },
        {
          "name": "metadataDoc",
          "type": "bytes"
        }
      ],
      "name": "createRequest",
      "outputs": [
        {
          "name": "",
          "type": "bool"
        }
      ],
      "payable": false,
      "stateMutability": "nonpayable",
      "type": "function"
    },
    {
      "constant": false,
      "inputs": [
        {
          "name": "value",
          "type": "uint256"
        },
        {
          "name": "expiration",
          "type": "uint256"
        },
        {
          "name": "metadataDoc",
          "type": "bytes"
        }
      ],
      "name": "depositAndCreateRequest",
      "outputs": [
        {
          "name": "",
          "type": "bool"
        }
      ],
      "payable": false,
      "stateMutability": "nonpayable",
      "type": "function"
    },
    {
      "constant": false,
      "inputs": [
        {
          "name": "requestId",
          "type": "uint256"
        },
        {
          "name": "newExpiration",
          "type": "uint256"
        }
      ],
      "name": "extendRequest",
      "outputs": [
        {
          "name": "",
          "type": "bool"
        }
      ],
      "payable": false,
      "stateMutability": "nonpayable",
      "type": "function"
    },
    {
      "constant": false,
      "inputs": [
        {
          "name": "requestId",
          "type": "uint256"
        },
        {
          "name": "amount",
          "type": "uint256"
        }
      ],
      "name": "addFundsToRequest",
      "outputs": [
        {
          "name": "",
          "type": "bool"
        }
      ],
      "payable": false,
      "stateMutability": "nonpayable",
      "type": "function"
    },
    {
      "constant": false,
      "inputs": [
        {
          "name": "requestId",
          "type": "uint256"
        },
        {
          "name": "newExpiration",
          "type": "uint256"
        },
        {
          "name": "amount",
          "type": "uint256"
        }
      ],
      "name": "extendAndAddFundsToRequest",
      "outputs": [],
      "payable": false,
      "stateMutability": "nonpayable",
      "type": "function"
    },
    {
      "constant": false,
      "inputs": [
        {
          "name": "requestId",
          "type": "uint256"
        },
        {
          "name": "endSubmission",
          "type": "uint256"
        },
        {
          "name": "endEvaluation",
          "type": "uint256"
        },
        {
          "name": "newExpiration",
          "type": "uint256"
        }
      ],
      "name": "approveRequest",
      "outputs": [
        {
          "name": "",
          "type": "bool"
        }
      ],
      "payable": false,
      "stateMutability": "nonpayable",
      "type": "function"
    },
    {
      "constant": false,
      "inputs": [
        {
          "name": "requestId",
          "type": "uint256"
        }
      ],
      "name": "rejectRequest",
      "outputs": [
        {
          "name": "",
          "type": "bool"
        }
      ],
      "payable": false,
      "stateMutability": "nonpayable",
      "type": "function"
    },
    {
      "constant": false,
      "inputs": [
        {
          "name": "requestId",
          "type": "uint256"
        }
      ],
      "name": "closeRequest",
      "outputs": [
        {
          "name": "",
          "type": "bool"
        }
      ],
      "payable": false,
      "stateMutability": "nonpayable",
      "type": "function"
    },
    {
      "constant": false,
      "inputs": [
        {
          "name": "requestId",
          "type": "uint256"
        },
        {
          "name": "solutionDoc",
          "type": "bytes"
        }
      ],
      "name": "createOrUpdateSolutionProposal",
      "outputs": [
        {
          "name": "",
          "type": "bool"
        }
      ],
      "payable": false,
      "stateMutability": "nonpayable",
      "type": "function"
    },
    {
      "constant": false,
      "inputs": [
        {
          "name": "requestId",
          "type": "uint256"
        },
        {
          "name": "solutionSubmitter",
          "type": "address"
        }
      ],
      "name": "vote",
      "outputs": [
        {
          "name": "",
          "type": "bool"
        }
      ],
      "payable": false,
      "stateMutability": "nonpayable",
      "type": "function"
    },
    {
      "constant": false,
      "inputs": [
        {
          "name": "requestId",
          "type": "uint256"
        }
      ],
      "name": "requestReClaim",
      "outputs": [
        {
          "name": "",
          "type": "bool"
        }
      ],
      "payable": false,
      "stateMutability": "nonpayable",
      "type": "function"
    },
    {
      "constant": false,
      "inputs": [
        {
          "name": "requestId",
          "type": "uint256"
        }
      ],
      "name": "requestClaim",
      "outputs": [
        {
          "name": "",
          "type": "bool"
        }
      ],
      "payable": false,
      "stateMutability": "nonpayable",
      "type": "function"
    }
  ],
  "bytecode": "0x608060405234801561001057600080fd5b50604051602080612142833981016040525160068054600160a060020a03909216600160a060020a03199283161790556003805490911633179055600080556120e48061005e6000396000f30060806040526004361061011c5763ffffffff7c010000000000000000000000000000000000000000000000000000000060003504166302d947ef81146101215780630eaa4767146101595780632506fc461461017a57806327e235e3146101925780632d7788db146101c55780632e1a7d4d146101dd57806339fe7e21146101f55780633c3ff3ef146102555780636a84a9851461027057806381d12c5814610285578063880cdc3114610366578063a7e5c8f014610387578063ac6a08de146103b0578063b33bb6a5146103f1578063b6b55f251461044f578063b72f5bf414610467578063e00b288a14610487578063f0282b7f1461049f578063f8a880aa146104b7578063fc0c546a14610517578063fe444e5614610548575b600080fd5b34801561012d57600080fd5b50610145600435600160a060020a0360243516610563565b604080519115158252519081900360200190f35b34801561016557600080fd5b50610145600435602435604435606435610678565b34801561018657600080fd5b50610145600435610907565b34801561019e57600080fd5b506101b3600160a060020a03600435166109f3565b60408051918252519081900360200190f35b3480156101d157600080fd5b50610145600435610a05565b3480156101e957600080fd5b50610145600435610c3c565b34801561020157600080fd5b50604080516020600460443581810135601f8101849004840285018401909552848452610145948235946024803595369594606494920191908190840183828082843750949750610d349650505050505050565b34801561026157600080fd5b50610145600435602435610f3b565b34801561027c57600080fd5b506101b36110b9565b34801561029157600080fd5b5061029d6004356110bf565b6040518089815260200188600160a060020a0316600160a060020a03168152602001878152602001806020018681526020018581526020018481526020018360048111156102e757fe5b60ff168152602001828103825287818151815260200191508051906020019080838360005b8381101561032457818101518382015260200161030c565b50505050905090810190601f1680156103515780820380516001836020036101000a031916815260200191505b50995050505050505050505060405180910390f35b34801561037257600080fd5b50610145600160a060020a0360043516611196565b34801561039357600080fd5b50610145600160a060020a036004351660243560443515156111ea565b3480156103bc57600080fd5b506103d1600160a060020a036004351661134a565b604080519384529115156020840152151582820152519081900360600190f35b3480156103fd57600080fd5b5060408051602060046024803582810135601f810185900485028601850190965285855261014595833595369560449491939091019190819084018382808284375094975061136f9650505050505050565b34801561045b57600080fd5b506101456004356114da565b34801561047357600080fd5b5061048560043560243560443561162b565b005b34801561049357600080fd5b5061014560043561165a565b3480156104ab57600080fd5b5061014560043561191e565b3480156104c357600080fd5b50604080516020600460443581810135601f8101849004840285018401909552848452610145948235946024803595369594606494920191908190840183828082843750949750611b5c9650505050505050565b34801561052357600080fd5b5061052c611b88565b60408051600160a060020a039092168252519081900360200190f35b34801561055457600080fd5b50610145600435602435611b97565b6000828152600160208190526040822090600782015460ff16600481111561058757fe5b1461059157600080fd5b4381600401541180156105a75750806005015443115b80156105b7575080600601544311155b15156105c257600080fd5b3360009081526005602052604090206001015460ff16806105f25750336000908152600982016020526040812054115b15156105fd57600080fd5b600160a060020a0383166000908152600b8201602052604090206002015460ff16151561062957600080fd5b600160a060020a0383166000908152600b82016020908152604080832060019081018054820190553384526005909252909120015461066e908590859060ff16611c09565b5060019392505050565b6000610682611ee2565b3360009081526005602052604090206001015460ff1615156106a357600080fd5b6000868152600160208181526040928390208351610140810185528154815281840154600160a060020a0316818401526002808301548287015260038301805487516101009782161597909702600019011691909104601f81018590048502860185019096528585529094919360608601939092908301828280156107695780601f1061073e57610100808354040283529160200191610769565b820191906000526020600020905b81548152906001019060200180831161074c57829003601f168201915b505050918352505060048281015460208301526005830154604083015260068301546060830152600783015460809092019160ff16908111156107a857fe5b60048111156107b357fe5b81526020016008820180548060200260200160405190810160405280929190818152602001828054801561081057602002820191906000526020600020905b8154600160a060020a031681526001909101906020018083116107f2575b50505050508152602001600a820180548060200260200160405190810160405280929190818152602001828054801561087257602002820191906000526020600020905b8154600160a060020a03168152600190910190602001808311610854575b50505050508152505090506000600481111561088a57fe5b8160e00151600481111561089a57fe5b146108a457600080fd5b83851080156108b257508284105b80156108c2575080608001518310155b15156108cd57600080fd5b5050600093845260016020819052604090942060078101805460ff1916861790556005810193909355600683019190915560049091015590565b6000818152600160208190526040822090600782015460ff16600481111561092b57fe5b14801561093c575060008160020154115b151561094757600080fd5b6004810154431161095757600080fd5b3360009081526009820160205260408120541161097357600080fd5b3360009081526009820160209081526040808320546002909252909120546109a09163ffffffff611d0116565b3360009081526002602081815260408084209490945560098501905291902054908201546109d39163ffffffff611d1416565b600282015533600090815260099091016020526040812055506001919050565b60026020526000908152604090205481565b6000610a0f611ee2565b3360009081526005602052604090206001015460ff161515610a3057600080fd5b6000838152600160208181526040928390208351610140810185528154815281840154600160a060020a0316818401526002808301548287015260038301805487516101009782161597909702600019011691909104601f8101859004850286018501909652858552909491936060860193909290830182828015610af65780601f10610acb57610100808354040283529160200191610af6565b820191906000526020600020905b815481529060010190602001808311610ad957829003601f168201915b505050918352505060048281015460208301526005830154604083015260068301546060830152600783015460809092019160ff1690811115610b3557fe5b6004811115610b4057fe5b815260200160088201805480602002602001604051908101604052809291908181526020018280548015610b9d57602002820191906000526020600020905b8154600160a060020a03168152600190910190602001808311610b7f575b50505050508152602001600a8201805480602002602001604051908101604052809291908181526020018280548015610bff57602002820191906000526020600020905b8154600160a060020a03168152600190910190602001808311610be1575b505050505081525050905060006004811115610c1757fe5b8160e001516004811115610c2757fe5b14610c3157600080fd5b61066e836002611d26565b33600090815260026020526040812054821115610c5857600080fd5b600654604080517fa9059cbb000000000000000000000000000000000000000000000000000000008152336004820152602481018590529051600160a060020a039092169163a9059cbb916044808201926020929091908290030181600087803b158015610cc557600080fd5b505af1158015610cd9573d6000803e3d6000fd5b505050506040513d6020811015610cef57600080fd5b50511515610cfc57600080fd5b33600090815260026020526040902054610d1c908363ffffffff611d1416565b33600090815260026020526040902055506001919050565b6000610d3e611ee2565b33600090815260026020526040902054851115610d5a57600080fd5b6000805481526001602081815260409283902084518155848201519281018054600160a060020a031916600160a060020a0390941693909317909255918301516002820155606083015180518493610db9926003850192910190611f4a565b506080820151816004015560a0820151816005015560c0820151816006015560e08201518160070160006101000a81548160ff02191690836004811115610dfc57fe5b02179055506101008201518051610e1d916008840191602090910190611fc8565b506101208201518051610e3a91600a840191602090910190611fc8565b505060008054808252600160208181526040808520938455929091018054600160a060020a03191633179055825483528183206002018990558254835291208551610e8e9350600390910191860190611f4a565b5060008054815260016020908152604080832060040187905582548352808320600701805460ff191690553383526002909152902054610ece9086611d14565b3360008181526002602090815260408083209490945581548252600180825284832084845260090182528483208a90558254835280825293822060080180548086018255908352908220018054600160a060020a0319169092179091558054820190559150509392505050565b3360009081526002602052604081205481908311801590610f5c5750600083115b1515610f6757600080fd5b50600083815260016020819052604090912090600782015460ff166004811115610f8d57fe5b14610f9757600080fd5b438160040154118015610fad5750806006015443105b1515610fb857600080fd5b33600090815260026020526040902054610fd8908463ffffffff611d1416565b3360009081526002602081815260408084209490945587835260019052919020015461100a908463ffffffff611d0116565b6000858152600160209081526040808320600281019490945533835260099093019052205415156110665760008481526001602081815260408320600801805492830181558352909120018054600160a060020a031916331790555b6000848152600160209081526040808320338452600901909152902054611093908463ffffffff611d0116565b600094855260016020818152604080882033895260090190915290952055509192915050565b60005481565b60016020818152600092835260409283902080548184015460028084015460038501805489516101009982161599909902600019011692909204601f81018790048702880187019098528787529296600160a060020a039092169592949091908301828280156111705780601f1061114557610100808354040283529160200191611170565b820191906000526020600020905b81548152906001019060200180831161115357829003601f168201915b505050506004830154600584015460068501546007909501549394919390925060ff1688565b600354600090600160a060020a031633146111b057600080fd5b600160a060020a03821615156111c557600080fd5b5060038054600160a060020a038316600160a060020a03199091161790556001919050565b60006111f4612029565b600354600160a060020a031633148061121c5750336000908152600560205260409020546001145b8061123957503360009081526005602052604090206001015460ff165b151561124457600080fd5b600160a060020a038516151561125957600080fd5b8315806112665750836001145b151561127157600080fd5b600160a060020a038516600090815260056020526040902060010154610100900460ff1615156112e757600480546001810182556000919091527f8a35acfbc15ff81a39ae7d344fd709f28e8600b4aa8c65c6b64bfe7fe36bd19b018054600160a060020a031916600160a060020a0387161790555b600160a060020a0394909416600090815260056020908152604091829020908601516001808301805498909401519690925560ff199687169015151761ff0019908116610100961515870217909616931515939093179094169092179092555090565b6005602052600090815260409020805460019091015460ff8082169161010090041683565b60008061137a612049565b60008581526001602081905260409091209250600783015460ff1660048111156113a057fe5b146113aa57600080fd5b4382600401541180156113c1575081600501544311155b15156113cc57600080fd5b336000908152600b8301602052604090206002015460ff16151561141257600a8201805460018101825560009182526020909120018054600160a060020a031916331790555b336000908152600b83016020908152604090912082518051849361143a928492910190611f4a565b5060208281015160018301556040808401516002909301805460608601516080909601511515620100000262ff0000199615156101000261ff001996151560ff199093169290921795909516179490941692909217909255336000908152600b850183522085516114ad92870190611f4a565b50336000908152600b830160205260409020600201805460ff191660019081179091559250505092915050565b600654604080517f23b872dd000000000000000000000000000000000000000000000000000000008152336004820152306024820152604481018490529051600092600160a060020a0316916323b872dd91606480830192602092919082900301818787803b15801561154c57600080fd5b505af1158015611560573d6000803e3d6000fd5b505050506040513d602081101561157657600080fd5b5051151561160b57604080517f08c379a000000000000000000000000000000000000000000000000000000000815260206004820152602860248201527f556e61626c6520746f207472616e7366657220746f6b656e20746f207468652060448201527f636f6e7472616374000000000000000000000000000000000000000000000000606482015290519081900360840190fd5b33600090815260026020526040902054610d1c908363ffffffff611d0116565b6116358383611b97565b151561164057600080fd5b61164a8382610f3b565b151561165557600080fd5b505050565b60008181526001602081905260408220829182918291829182918290600783015460ff16600481111561168957fe5b14801561169a575060008260020154115b15156116a557600080fd5b8160060154431180156116bb5750816004015443105b15156116c657600080fd5b336000908152600b8301602052604090206002015460ff1680156117055750336000908152600b8301602052604090206002015462010000900460ff16155b151561171057600080fd5b506000808052600c82016020908152604080832090915281205496505b60088201548110156118bf57600882018054600095508290811061174d57fe5b6000918252602080832090910154600160a060020a0316808352600985019091526040822054975093508611156118b757600160a060020a0383166000908152600c830160209081526040808320338452909152812054111561184257600160a060020a0383166000908152600c83016020908152604080832083805290915290205493506117e2868563ffffffff611ecd16565b600160a060020a0384166000908152600984016020526040902054909650611810908763ffffffff611d1416565b600160a060020a038416600090815260098401602052604090205561183b858763ffffffff611d0116565b94506118b7565b60008711156118b75761185b868863ffffffff611ecd16565b600160a060020a0384166000908152600984016020526040902054909650611889908763ffffffff611d1416565b600160a060020a03841660009081526009840160205260409020556118b4858763ffffffff611d0116565b94505b60010161172d565b336000908152600260205260409020546118df908663ffffffff611d0116565b33600090815260026020818152604080842094909455600b8601905291902001805462ff00001916620100001790556001975050505050505050919050565b6000611928611ee2565b3360009081526005602052604090206001015460ff16151561194957600080fd5b6000838152600160208181526040928390208351610140810185528154815281840154600160a060020a0316818401526002808301548287015260038301805487516101009782161597909702600019011691909104601f8101859004850286018501909652858552909491936060860193909290830182828015611a0f5780601f106119e457610100808354040283529160200191611a0f565b820191906000526020600020905b8154815290600101906020018083116119f257829003601f168201915b505050918352505060048281015460208301526005830154604083015260068301546060830152600783015460809092019160ff1690811115611a4e57fe5b6004811115611a5957fe5b815260200160088201805480602002602001604051908101604052809291908181526020018280548015611ab657602002820191906000526020600020905b8154600160a060020a03168152600190910190602001808311611a98575b50505050508152602001600a8201805480602002602001604051908101604052809291908181526020018280548015611b1857602002820191906000526020600020905b8154600160a060020a03168152600190910190602001808311611afa575b505050505081525050905060016004811115611b3057fe5b8160e001516004811115611b4057fe5b14611b4a57600080fd5b611b55836004611d26565b5050919050565b6000611b67846114da565b1515611b7257600080fd5b611b7d848484610d34565b151561066e57600080fd5b600654600160a060020a031681565b6000828152600160208190526040822090810154600160a060020a03163314611bbf57600080fd5b6000600782015460ff166004811115611bd457fe5b14611bde57600080fd5b6004810154831015611bef57600080fd5b505060009182526001602081905260409092206004015590565b6000838152600160205260409020818015611c475750600160a060020a0383166000908152600b82016020526040902060020154610100900460ff16155b15611c98576000808052600c820160209081526040808320825280832080546001908101909155600160a060020a038716845281842055600b84019091529020600201805461ff0019166101001790555b336000908152600c820160209081526040808320600160a060020a03871684529091529020541515611cfb57336000908152600c82016020908152604080832083805290915280822080546001908101909155600160a060020a03861683529120555b50505050565b81810182811015611d0e57fe5b92915050565b600082821115611d2057fe5b50900390565b600082815260016020526040812081805b6008830154811015611e9a578260090160008460080183815481101515611d5a57fe5b6000918252602080832090910154600160a060020a03168352820192909252604001812054600885018054919450611dcf92859260098801929086908110611d9e57fe5b6000918252602080832090910154600160a060020a031683528201929092526040019020549063ffffffff611d1416565b8360090160008560080184815481101515611de657fe5b6000918252602080832090910154600160a060020a03168352820192909252604001812091909155600884018054611e5892859260029286908110611e2757fe5b6000918252602080832090910154600160a060020a031683528201929092526040019020549063ffffffff611d0116565b600260008560080184815481101515611e6d57fe5b6000918252602080832090910154600160a060020a03168352820192909252604001902055600101611d37565b6000600284015560078301805486919060ff19166001836004811115611ebc57fe5b021790555060019695505050505050565b60008183811515611eda57fe5b049392505050565b61014060405190810160405280600081526020016000600160a060020a03168152602001600081526020016060815260200160008152602001600081526020016000815260200160006004811115611f3657fe5b815260200160608152602001606081525090565b828054600181600116156101000203166002900490600052602060002090601f016020900481019282601f10611f8b57805160ff1916838001178555611fb8565b82800160010185558215611fb8579182015b82811115611fb8578251825591602001919060010190611f9d565b50611fc4929150612077565b5090565b82805482825590600052602060002090810192821561201d579160200282015b8281111561201d5782518254600160a060020a031916600160a060020a03909116178255602090920191600190910190611fe8565b50611fc4929150612094565b604080516060810182526000808252602082018190529181019190915290565b6040805160a08101825260608082526000602083018190529282018390528101829052608081019190915290565b61209191905b80821115611fc4576000815560010161207d565b90565b61209191905b80821115611fc4578054600160a060020a031916815560010161209a5600a165627a7a72305820c31b0d959bc61231b92088f2cdb935fe3258434a15344e1cab9ae01287b1ce840029",
  "source": "pragma solidity ^0.4.24;\n\nimport \"openzeppelin-solidity/contracts/token/ERC20/ERC20.sol\";\nimport \"openzeppelin-solidity/contracts/math/SafeMath.sol\";\n\ncontract ServiceRequest {\n    \n    using SafeMath for uint256;\n    \n    struct Request {\n        uint256 requestId;\n        address requester;\n        uint256 totalFund;\n        bytes metadataDoc;\n        \n        uint256 expiration;\n        uint256 endSubmission;\n        uint256 endEvaluation;\n        \n        RequestStatus status;\n        \n        address[] fundMembers;\n        mapping(address => uint256) funds;\n        \n        address[] submitters;\n        mapping(address => Solution) submittedSols;\n        \n        mapping(address => mapping(address => uint256)) votes;\n    }\n\n    // Open -> Rejected\n    // Open -> Approved -> Completed -> Closed\n    enum RequestStatus { Open, Approved, Rejected, Completed, Closed }\n    \n    struct Solution {\n        bytes solutionDoc;\n        uint256 totalVotes;\n        \n        bool isSubmitted;\n        bool isShortlisted;\n        bool isClaimed;\n    }\n    \n    uint256 public nextRequestId;\n    mapping (uint256 => Request) public requests;\n    mapping (address => uint256) public balances;\n    \n    address owner;\n    \n    address[] memberKeys;\n    struct Member {\n        uint role; // 0-Normal member, 1-> Admin Member who can add other members\n        bool status; // True -> Actibe, False -> InActive/Deleted\n        bool exists; // To check the existstance of the Member\n    }\n    mapping(address => Member) public foundationMembers;\n \n    ERC20 public token; // Address of token contract\n    \n    constructor (address _token)\n    public\n    {\n        token = ERC20(_token);\n        owner = msg.sender;\n        nextRequestId = 0;\n    }\n  \n    function deposit(uint256 value) \n    public\n    returns(bool) \n    {\n        require(token.transferFrom(msg.sender, this, value), \"Unable to transfer token to the contract\"); \n        balances[msg.sender] = balances[msg.sender].add(value);\n        return true;\n    }\n    \n    function withdraw(uint256 value)\n    public\n    returns(bool)\n    {\n        require(balances[msg.sender] >= value);\n        require(token.transfer(msg.sender, value));\n        balances[msg.sender] = balances[msg.sender].sub(value);\n        return true;\n    }\n    \n    function updateOwner(address newOwner) public returns(bool) {\n        require(owner == msg.sender);\n        require(newOwner != address(0));\n        \n        owner = newOwner;\n        \n        return true;\n    }\n    \n    function addOrUpdateFoundationMembers(address member, uint role, bool active) public returns (bool) {\n        \n        require(owner == msg.sender || foundationMembers[msg.sender].role == 1 || foundationMembers[msg.sender].status);\n        require(member != address(0));\n        require(role == 0 || role == 1);\n        \n        Member memory mem;\n        if(!foundationMembers[member].exists) {\n            memberKeys.push(member);\n        }\n        foundationMembers[member] = mem;\n        foundationMembers[member].role = role;\n        foundationMembers[member].status = active;\n        foundationMembers[member].exists = true;\n        \n        return true;\n    }\n    \n    function createRequest(uint256 value, uint256 expiration, bytes metadataDoc) \n    public\n    returns(bool) \n    {\n        require(balances[msg.sender] >= value);\n        \n        Request memory req;\n        requests[nextRequestId] = req;\n        \n        requests[nextRequestId].requestId = nextRequestId;\n        requests[nextRequestId].requester = msg.sender;\n        requests[nextRequestId].totalFund = value;\n        requests[nextRequestId].metadataDoc = metadataDoc;\n        requests[nextRequestId].expiration = expiration;\n        requests[nextRequestId].status = RequestStatus.Open;\n\n        balances[msg.sender] = balances[msg.sender].sub(value);\n\n        requests[nextRequestId].funds[msg.sender] = value;\n        requests[nextRequestId].fundMembers.push(msg.sender);\n\n        nextRequestId += 1;\n        \n\n        return true;\n    }\n\n    function depositAndCreateRequest(uint256 value, uint256 expiration, bytes metadataDoc)\n    public\n    returns(bool)\n    {\n        require(deposit(value));\n        require(createRequest(value, expiration, metadataDoc));\n        return true;\n    }\n\n\n    /// the sender can extend the expiration of the request at any time\n    function extendRequest(uint256 requestId, uint256 newExpiration) \n    public \n    returns(bool)\n    {\n        Request storage req = requests[requestId];\n\n        require(msg.sender == req.requester);\n        require(req.status == RequestStatus.Open);\n        require(newExpiration >= req.expiration);\n\n        requests[requestId].expiration = newExpiration;\n        return true;\n    }\n    \n    // Anyone could add funds to the service request\n    function addFundsToRequest(uint256 requestId, uint256 amount)\n    public\n    returns(bool)\n    {\n        require(balances[msg.sender] >= amount && amount > 0);\n        \n        Request storage req = requests[requestId];\n        \n        // Request should be Approved - Means in Progress\n        require(req.status == RequestStatus.Approved);\n        \n        // Request should not be expired\n        require(req.expiration > block.number && block.number < req.endEvaluation);\n\n        //tranfser amount from sender to the Service Request\n        balances[msg.sender] = balances[msg.sender].sub(amount);\n        requests[requestId].totalFund = requests[requestId].totalFund.add(amount);\n        \n        // Adding funds first time check\n        if(requests[requestId].funds[msg.sender] == 0){\n            requests[requestId].fundMembers.push(msg.sender);\n        } // else member already exists\n\n        //Update the respective request funds\n        requests[requestId].funds[msg.sender] = requests[requestId].funds[msg.sender].add(amount);\n            \n        return true;\n    }\n\n    function extendAndAddFundsToRequest(uint256 requestId, uint256 newExpiration, uint256 amount)\n    public\n    {\n        require(extendRequest(requestId, newExpiration));\n        require(addFundsToRequest(requestId, amount));\n    }\n    \n    function approveRequest(uint256 requestId, uint256 endSubmission, uint256 endEvaluation, uint256 newExpiration) public returns(bool) {\n        \n        // Should be foundation Member\n        require(foundationMembers[msg.sender].status);\n        \n        Request memory req = requests[requestId];\n        \n        // Request should be active\n        require(req.status == RequestStatus.Open);\n        \n        // Request should not be expired\n        //require(req.expiration > block.number);\n        require(endSubmission < endEvaluation && endEvaluation < newExpiration && newExpiration >= req.expiration );\n        \n        requests[requestId].status = RequestStatus.Approved;\n        requests[requestId].endSubmission = endSubmission;\n        requests[requestId].endEvaluation = endEvaluation;\n        requests[requestId].expiration = newExpiration;\n        \n        return true;\n    }\n    \n    function rejectRequest(uint256 requestId) public returns(bool) {\n        \n        // Should be foundation Member\n        require(foundationMembers[msg.sender].status);\n        \n        Request memory req = requests[requestId];\n        \n        // Request should be active\n        require(req.status == RequestStatus.Open);\n        \n        settleFundsAndChangeStatus(requestId, RequestStatus.Rejected);\n        \n        return true;\n    }\n\n    function closeRequest(uint256 requestId) public returns(bool) {\n        \n        // Should be ative foundation Member\n        require(foundationMembers[msg.sender].status);\n        \n        Request memory req = requests[requestId];\n        \n        // Request should be active\n        require(req.status == RequestStatus.Approved);  \n        \n        settleFundsAndChangeStatus(requestId, RequestStatus.Closed);\n        \n    }\n    \n    function settleFundsAndChangeStatus(uint256 requestId, RequestStatus finalStatus) internal returns(bool) {\n        \n        Request storage req = requests[requestId];\n        uint256 amount;\n        for(uint256 i=0; i<req.fundMembers.length; i++) {\n            amount = req.funds[req.fundMembers[i]];\n            req.funds[req.fundMembers[i]] = req.funds[req.fundMembers[i]].sub(amount);\n            balances[req.fundMembers[i]] = balances[req.fundMembers[i]].add(amount);\n        }\n        req.totalFund = 0;\n        req.status = finalStatus;\n        \n        return true;\n    }\n    \n    function createOrUpdateSolutionProposal(uint256 requestId, bytes solutionDoc)\n    public\n    returns(bool)\n    {\n        Request storage req = requests[requestId];\n\n        // Request should be active\n        require(req.status == RequestStatus.Approved);\n        \n        // Request should not be expired\n        require(req.expiration > block.number && block.number <= req.endSubmission);\n        \n        Solution memory sol;\n\n        // Check if already user submitted the solution\n        if(!req.submittedSols[msg.sender].isSubmitted) {\n            req.submitters.push(msg.sender);\n        }\n        // Create or Update the Submitted Solution\n        req.submittedSols[msg.sender] = sol;\n        req.submittedSols[msg.sender].solutionDoc = solutionDoc;\n        req.submittedSols[msg.sender].isSubmitted = true;\n        \n        return true;\n        \n    }\n\n    // Only users who has stake can vote\n    // Foundation members can vote => Shortlist\n    function vote(uint256 requestId, address solutionSubmitter) public returns (bool) {\n        \n        Request storage req = requests[requestId];\n        \n        // Request should be active\n        require(req.status == RequestStatus.Approved);\n        \n        // Request should not be expired\n        require(req.expiration > block.number && block.number > req.endSubmission && block.number <= req.endEvaluation);\n        \n        // Should be foundation Member or Staking Member to Vote\n        require(foundationMembers[msg.sender].status || req.funds[msg.sender] > 0);\n        \n        // Check for solution Submitter status\n        require(req.submittedSols[solutionSubmitter].isSubmitted);\n        \n        req.submittedSols[solutionSubmitter].totalVotes += 1;\n        \n        submitVote(requestId, solutionSubmitter, foundationMembers[msg.sender].status);\n        \n        \n        return true;\n    }\n\n    function submitVote(uint256 requestId, address solutionSubmitter, bool isFromFoundation) \n    internal \n    {\n        \n        Request storage req = requests[requestId];\n\n        if(isFromFoundation && !req.submittedSols[solutionSubmitter].isShortlisted) {\n            // 0x0 contains foundation shortlisted solutions\n            req.votes[address(0)][address(0)] += 1;\n            req.votes[address(0)][solutionSubmitter] = 1;\n            req.submittedSols[solutionSubmitter].isShortlisted = true;\n        }\n        \n        if(req.votes[msg.sender][solutionSubmitter] == 0)\n        {\n            req.votes[msg.sender][address(0)] += 1;\n            req.votes[msg.sender][solutionSubmitter] = 1;\n        }\n    }\n    \n    function requestReClaim(uint256 requestId) public returns (bool) {\n        Request storage req = requests[requestId];\n        \n        // Request should be active and should have funds\n        require(req.status == RequestStatus.Approved && req.totalFund > 0);\n        \n        // Only after expire\n        require(block.number > req.expiration);\n        \n        // Should have stake\n        require(req.funds[msg.sender] > 0);\n        \n        balances[msg.sender] = balances[msg.sender].add(req.funds[msg.sender]);\n        req.totalFund = req.totalFund.sub(req.funds[msg.sender]);\n        req.funds[msg.sender] = 0;\n        \n        return true;\n    }\n\n    function requestClaim(uint256 requestId) \n    public\n    returns (bool)\n    {\n        uint256 fundationVotes;\n        uint256 userStake;\n        uint256 totalClaim;\n        uint256 userVotes;\n        address fundMember;\n        Request storage req = requests[requestId];\n        \n        // Request should be active and should have funds\n        require(req.status == RequestStatus.Approved && req.totalFund > 0);\n        \n        // Request should complete the eveluation and should not expire\n        require(block.number > req.endEvaluation && block.number < req.expiration);\n        \n        // Should be Solution Submitter Only and should have atleast one vote\n        require(req.submittedSols[msg.sender].isSubmitted && !req.submittedSols[msg.sender].isClaimed);\n        \n        fundationVotes = req.votes[address(0)][address(0)];\n        \n        for(uint256 i=0; i<req.fundMembers.length;i++) {\n            userVotes = 0;\n            fundMember = req.fundMembers[i];\n            userStake = req.funds[fundMember];\n            if(userStake > 0) {\n                if(req.votes[fundMember][msg.sender] > 0) {\n                    userVotes = req.votes[fundMember][address(0)];\n                    userStake = userStake.div(userVotes);\n                    req.funds[fundMember] = req.funds[fundMember].sub(userStake);\n                    totalClaim = totalClaim.add(userStake);\n                }\n                else if(fundationVotes > 0) {\n                    userStake = userStake.div(fundationVotes);\n                    req.funds[fundMember] = req.funds[fundMember].sub(userStake);\n                    totalClaim = totalClaim.add(userStake);\n                }\n            }\n        }\n        \n        balances[msg.sender] = balances[msg.sender].add(totalClaim);\n        req.submittedSols[msg.sender].isClaimed = true;\n\n        return true;\n    }\n    \n}",
  "sourcePath": "C:\\Users\\E178266\\Desktop\\LTBD\\RFAI-Contracts\\RFAI-Contracts\\contracts\\ServiceRequest.sol",
  "compiler": {
    "name": "solc",
    "version": "0.4.24+commit.e67f0147.Emscripten.clang"
  },
  "schemaVersion": "2.0.1",
  "updatedAt": "2018-12-02T17:00:00.260Z"
}